:040000000C94440018
:100004000C9471000C9485000C9400000C94000076
:100014000C9400000C9400000C9400000C9400005C
:100024000C9400000C9400000C948E000C940000BE
:100034000C9400000C9400000C9400000C9400003C
:100044000C9400000C9400000C9400000C9400002C
:100054001027E80364000A000100001000011000EA
:100064000100000000000000000001002564203AA7
:100074002025640080C00A000400660002006802B3
:1000840078000000F894EE27ECBBF1E0FBBFEBBF77
:10009400E5BF8DE0A2E0BB27ED938A95E9F780E008
:1000A40098E0A0E6ED930197E9F7EAE7F0E085919F
:1000B4009591009761F0A591B59105901590BF01B8
:1000C400F00105900D920197E1F7FB01F0CFEFE508
:1000D400EDBFE8E0EEBFC0E6D2E00C9400010A9266
:1000E400EA93FA93EFB7EA930C2C0D2821F4E1E09C
:1000F400F0E06F0102C0CC24DD24E991EFBFF99157
:10010400E99109901895EA93EFB749B2552466B27C
:100114007724EFBFE99118950A921A92FA926A939A
:100124007A938A939A93AA93BA93EA93FA93EFB73A
:10013400EA93E3E8E2BF0C2C0D2809F451C0F40162
:1001440031964F01EAE0F0E0E815F90509F5882455
:100154009924F50131965F010E941703E0E6F2E06D
:10016400FA93EA93E0E7F0E0FA93EA93F3010E944A
:10017400EA030E94F703F2010E94EA030E94F703D4
:1001840088E00E94B2022C96A0E6B2E00E944503E9
:10019400ECE3F0E0EA15FB0529F4AA24BB24F20100
:1001A40031962F01EBE3F0E0E415F5052CF444243B
:1001B4005524F30131963F01E7E1F0E0E615F70538
:1001C40014F46624772400240614070421F400247C
:1001D4000414050409F002C0E0E001C0E1E0E2BB60
:1001E400E991EFBFF991E991B991A9919991899117
:1001F40079916991F990199009901895E0E0EABB1A
:10020400EBBBE7BBE8BBEFEFE4BBE0E0E5BBEFEF44
:10021400E1BBE1E0E2BBE3E0E3BFE3E8E2BFE0E04F
:10022400ECBFEFBDEEBDEDBDECBDE7BDE6BDEBBD86
:10023400EABDE9BDE8BDE2BDE5BDE4BDE3BDE1E085
:10024400E9BFEBB7E06CEBBFE0E0E5BFE4BFE0EC97
:10025400EABFE0E0EAB9E0E8E8B9E0E0E0BFE6B927
:10026400EDB9E6BFA8E00E945603789449B255243C
:1002740066B27724FFCFFFCFBA93AA931A930A9357
:10028400AA81BB8112960E94EF03309759F1AA818B
:10029400BB8114960E94EF038F01309761F0023006
:1002A400E0E01E0798F0F80131978F01AA81BB8125
:1002B4001496ED93FC93AA81BB811296ED91FD9166
:1002C4003196FE93EE933197AC81A083AA81BB81D2
:1002D4000E94EF03FF232AF0ED91FD913196FE93E6
:1002E400EE9306C0AA81BB81EFEFFFEFED93FC9381
:1002F4001981088125960895BA93AA9326970E9496
:10030400FC0310E0AC85BD85E0E0F0E0ED93FC93E8
:10031400EA89FB893196EA8BFB8B3197E4912E2F86
:10032400E03009F415C1E12FE03039F4253211F43D
:1003340011E002C00E949E030AC1E130A9F42532F3
:1003440019F40E949E0302C112E040E000E02D3245
:1003540011F401E0FCC02B3211F44BE2F8C020325E
:1003640011F440E2F4C002C0E23039F450E013E08A
:10037400203311F40068EBC003C0E33009F0E7C098
:10038400203310F02A3308F007C0AAE05A9F502DFA
:10039400E22FE0535E0FDBC0E22FE33649F40E9404
:1003A400A503E889F989A481AA930E94AB03CEC06E
:1003B400E33741F40E94A5030E94B1030E94850320
:1003C4001E2F0AC0E03761F40E94A5030E94B10306
:1003D4000E9491031E2F086002600F7730E034C042
:1003E400E43611F0E93611F4046002C0E53731F463
:1003F400E4E5F0E0EE83FF8315E00CC0E83511F48A
:10040400086003C0E83709F0A1C0EEE5F0E0EE8330
:10041400FF8314E002FF14C00E94A5030E94BB03E3
:10042400AB85AA233AF4EA85FB850E94E603EA87B2
:10043400FB874DE2403011F01F5F01C00B7F04C009
:100444000E94A5030E94BB0300FD11C0151778F498
:1004540007FF08C002FF04C00B7F242F115001C006
:1004640020E301C020E20E949E035150EFCF312FC0
:1004740001FF17C03030A1F003FF06C0EE81FF81F9
:100484002591EE83FF8305C0AE81BF812D91AE839C
:10049400BF830E949E03503009F051503150EACF7F
:1004A4004BC020E3EE81FF810E94F303E887F987C4
:1004B400EE81FF813296EE83FF83E885F985AA8574
:1004C400BB85AE17BF0750F02F5FA885B985EA85B5
:1004D400FB85EA1BFB0BEA87FB87EFCF2A3328F067
:1004E40003FF02C0295F01C0295D04FD1AC0213346
:1004F40020F4A885B985119709F409C0531710F0A1
:1005040000FF01C013C020E207FF0BC020E300611D
:1005140002FF07C00B7F4A930E94AB03503009F0DF
:1005240051500E949E03503009F051503150A8851B
:10053400B985129708F0B5CF00FF08C0503031F0EC
:100544005150E0E2EA930E94AB03F8CF10E0E0CE12
:10055400AC85BD850E94EF030E9403046496089550
:10056400FF92F82E26970E94FE030E94C303309741
:1005740019F4EFEFFFEF23C0DE0116960E94E203A9
:100584008D010E94C303EE83FF83E0E0E887E987DF
:10059400DE011A960E94E2030E94EF03FA93EA93A3
:1005A4001A930A93EEE3F1E0FA93EA93DE011A96C2
:1005B400A3DE9F01AE81BF81E0E0EC93F9010E94CC
:1005C40005042A96FF900895AA93E5B3EF70AE2F21
:1005D400E881E07FEA2BE5BB8DE08A95F1F7AA9AE2
:1005E4008DE08A95F1F7AA988DE08A95F1F789C094
:1005F400AA93A881E9DFE881E295E883A881E4DF92
:1006040085E88A95F1F77DC0AA93E881F0E0E8597E
:10061400FD4FE081A981AE0FEBDFE981E0936C022D
:10062400E881E0936D0222960895A2E00E94CA0335
:10063400ACE0DEDFA1E00E94CA03E0E0E0936D02DB
:10064400E0936C020895AA93A881AA3031F0E09156
:100654006E02A0916C02AE1760F0E0E0EA93A09104
:100664006D02AF5FA0936D02CFDFA881AA3009F4B9
:1006740048C0E0916C02EF5FE0936C02A89AA881F5
:10068400B7DFA8983EC0BA93AA931A93A981BA81F6
:10069400ED91A983BA831E2FE03019F0A12FD3DF87
:1006A400F5CF188123960895AA93E4B3E06FE4BBD1
:1006B400A29AA09AA19AAA98A898A998E881E093E6
:1006C4006E02E058E0936A02E881E054E0936B0222
:1006D400A4E1B0E00E94D8030E94D0030E94D0039A
:1006E4000E94D003A0E270DF88EC90E00197F1F75C
:1006F400A8E27EDFA4E07CDFA5E87ADFA6E078DF6D
:1007040094DF21960895BA93AA93A991B991EE27FB
:10071400FF276D91662311F03196FBCF0895BA93AC
:10072400AA93AA27BB27E991F9910590002011F01B
:100734001196FBCFFD0108952A93AD85BE85EF8503
:10074400F88909950895E889F9893497E88BF98B34
:100754000895AD85BE85EF85F88909950895A88922
:10076400B98914960E94EF03EE83FF83AE81BF81A3
:100774000895A889B98914960E94EF03EA87FB8734
:100784000895DE011C960E94E2030E94EF0308957F
:100794000E94FA02A3E0B0E00C94D803A0E30E9404
:1007A400E60288EC90E00197F1F70895109639F08D
:1007B40080ED97E00197F1F7A8951197C9F708958F
:1007C4000024AF0DB01D0895F195E195F040089512
:1007D4006F2F660F660B762F0895ED91FC9111979C
:1007E40008950590F491E02D08957A936A93FA930D
:1007F400EA9308955A934A933A932A931A930A933D
:1008040008955D814C813B812A8119810881089575
:00000001FF
