:040000000C94540008
:100004000C9400000C9400000C9400000C9400006C
:100014000C9400000C9400000C9400000C9400005C
:100024000C9400000C9400000C9400000C9400004C
:100034000C9481000C9400000C9400000C940000BB
:100044000C9400000C9400000C9400000C9400002C
:100054001027E80364000A000100001000011000EA
:100064000100000000000000000000000000256402
:100074000025640A0074313A25640A74323A25640E
:10008400006D313A25640A6D323A2564000080C05F
:100094000100020066000A00040068000200BD02BC
:1000A40092000000F894EE27ECBBF1E0FBBFEBBF3D
:1000B400E5BF8DE0A2E0BB27ED938A95E9F780E0E8
:1000C40098E0A0E6ED930197E9F7E4E9F0E0859183
:1000D4009591009761F0A591B59105901590BF0198
:1000E400F00105900D920197E1F7FB01F0CFEFE5E8
:1000F400EDBFE8E0EEBFC0E6D2E00C94D200AA93D4
:10010400EA93FA93EFB7EA931A930A931BB10CB1EB
:10011400E12FEC71E9F4E091BA02EF5FE093BA02E7
:10012400E150F0E0E659FD4F0083A091BA02A035FA
:1001340019F4E0E0E093BA02A091BC02AF5FA0938F
:10014400BC02A03529F4E0E0E093BC02689420F8F6
:1001540009911991E991EFBFF991E991A991189544
:100164001A93E091BC02E030E1F3E091BB02EF5F4F
:10017400E093BB02E150F0E0E659FD4F1081A091FD
:10018400BB02A03519F4E0E0E093BB02F894E091DF
:10019400BC02E150E093BC027894E12F19910895D8
:1001A400C4D0A4ECB9E00E947006C09AC198C29869
:1001B4000E94E505E4E0F0E060E070E00E94EA05FA
:1001C4000E94F1050E94E505F2010E94F6050E94D5
:1001D400E60328960E94FC05C098C198C29A0E9422
:1001E400E505E6E0F0E060E070E00E94EA05E9E1A0
:1001F400F0E06E167F0624F4EAE0F0E05F0129C027
:10020400E9E1F0E06E167F062CF0EEE1F0E0E61591
:10021400F7050CF404C0E2E3F0E05F011AC0EFE17B
:10022400F0E06E167F062CF0E3E2F0E0E615F70549
:100234000CF404C0E6E9F0E05F010BC0E4E2F0E096
:100244006E167F0624F0EAEFF0E05F0102C0AA24F4
:10025400BB24E5E7F0E0FA93EA93F5010E94F60582
:100264000E9414042696C098C19AC2980E94E5057B
:10027400E8E0F0E060E070E00E94EA05E1E0F0E030
:10028400E815F90501F5F301E419F50919F4CC248D
:10029400DD2418C0D301A419B50916971CF4E2E3B0
:1002A400F0E00FC0D301A419B5091B971CF4E6E9CB
:1002B400F0E007C0D301A419B50950971CF4EAEF84
:1002C400F0E06F0102C0CC24DD24E5E7F0E0FA930E
:1002D400EA93F6010E94F6050E94140426960E94F1
:1002E400F105E9E7F0E0FA93EA93F2010E940006CF
:1002F400F3010E9400060E940506A4EFB1E00E94EB
:1003040070060E94F105E5E8F0E0FA93EA93F5013E
:100314000E940006F6010E9400060E940506A4EF52
:10032400B1E00E94700641CFFFCFE0E0EABBEBBB37
:10033400E7E0E7BBE0E0E8BBE4BBE5BBE1BBE2BB75
:10034400E3BFE2BFECBFEFBDEEBDEDBDECBDE7BD6D
:10035400E6BDEBBDEABDE9BDE8BDE2BDE5BDE4BD7A
:10036400E3BDE9BFE5BFE4BFEBB9E8E9EAB9E6E814
:10037400E0BDE0E0E0BDE3E3E9B9E0E8E8B9E0E0EE
:10038400E0BFE6B9EDB9E6BFA8E072D0789408956D
:10039400AA93E5B3EF70AE2FE881E07FEA2BE5BBCB
:1003A4008DE08A95F1F7AA9A8DE08A95F1F7AA98DB
:1003B4008DE08A95F1F70C946D02AA93A881E8DF89
:1003C400E881E295E883A881E3DF85E88A95F1F77F
:1003D40082C0AA93E881F0E0E354FD4FE081A98153
:1003E400AE0FEBDFE981E093C102E881E093C20242
:1003F40022960895A2E00E940C06ACE0DEDFA1E0A4
:100404000E940C06E0E0E093C202E093C10208956A
:10041400AA93A881AA3031F0E091C302A091C1024D
:10042400AE1760F0E0E0EA93A091C202AF5FA09340
:10043400C202CFDFA881AA3009F44DC0E091C10205
:10044400EF5FE093C102A89AA881B7DFA89843C0E0
:10045400BA93AA931A93A981BA81ED91A983BA8315
:100464001E2FE03019F0A12FD3DFF5CF18813DC046
:10047400AA93E4B3E06FE4BBA29AA09AA19AAA98C3
:10048400A898A998E881E093C302E058E093BF02DA
:10049400E881E054E093C002A4E1B0E00E94700659
:1004A4000E9412060E9412060E941206A0E270DF49
:1004B40088EC90E00197F1F7A8E27FDFA4E07DDF0C
:1004C400A5E87BDFA6E079DF95DF05C0AA935D9BF5
:1004D400FECFE881ECB921960895BA93AA93AA8134
:1004E400F5DFA881B9810E941A0623960895BA936C
:1004F400AA931A930A93AA81BB8112960E948F062B
:10050400309729F1AA81BB8114960E948F068F012E
:10051400309761F00230E0E01E0780F0F801319777
:100524008F01AA81BB811496ED93FC93AA81BB81B0
:1005340012960E941A063197AC81A083AA81BB81CE
:100544000E948F06FF2312F00E941A0606C0AA8199
:10055400BB81EFEFFFEFED93FC931981088196C106
:10056400BA93AA9326970E949C0610E0AC85BD8599
:10057400E0E0F0E0ED93FC93EA89FB893196EA8BA5
:10058400FB8B3197E4912E2FE03009F415C1E12F54
:10059400E03039F4253211F411E002C00E94200643
:1005A4000AC1E130A9F4253219F40E94200602C1DF
:1005B40012E040E000E02D3211F401E0FCC02B32E7
:1005C40011F44BE2F8C0203211F440E2F4C002C04E
:1005D400E23039F450E013E0203311F40068EBC04A
:1005E40003C0E33009F0E7C0203310F02A3308F0E9
:1005F40007C0AAE05A9F502DE22FE0535E0FDBC0E4
:10060400E22FE33649F40E942706E889F989A48198
:10061400AA930E942D06CEC0E33741F40E94270618
:100624000E9433060E94CC051E2F0AC0E03761F4F5
:100634000E9427060E9433060E94D8051E2F0860D8
:1006440002600F7730E034C0E43611F0E93611F47B
:10065400046002C0E53731F4E4E5F0E0EE83FF83A3
:1006640015E00CC0E83511F4086003C0E83709F060
:10067400A1C0EEE5F0E0EE83FF8314E002FF14C0B6
:100684000E9427060E943D06AB85AA233AF4EA8518
:10069400FB850E947E06EA87FB874DE2403011F01D
:1006A4001F5F01C00B7F04C00E9427060E943D0605
:1006B40000FD11C0151778F407FF08C002FF04C03D
:1006C4000B7F242F115001C020E301C020E20E94BF
:1006D40020065150EFCF312F01FF17C03030A1F069
:1006E40003FF06C0EE81FF812591EE83FF8305C0E1
:1006F400AE81BF812D91AE83BF830E94200650300E
:1007040009F051503150EACF4BC020E3EE81FF8114
:100714000E949306E887F987EE81FF813296EE8383
:10072400FF83E885F985AA85BB85AE17BF0750F01E
:100734002F5FA885B985EA85FB85EA1BFB0BEA8751
:10074400FB87EFCF2A3328F003FF02C0295F01C0E3
:10075400295D04FD1AC0213320F4A885B9851197B9
:1007640009F409C0531710F000FF01C013C020E2C0
:1007740007FF0BC020E3006102FF07C00B7F4A9311
:100784000E942D06503009F051500E94200650302E
:1007940009F051503150A885B985129708F0B5CFAA
:1007A40000FF08C0503031F05150E0E2EA930E945B
:1007B4002D06F8CF10E0E0CEAC85BD850E948F06F3
:1007C4000E94A30664960895FF92F82E26970E942D
:1007D4009E060E944506309719F4EFEFFFEF1DC007
:1007E400DE0116960E947A068D010E944506EE836C
:1007F400FF83E0E0E887E987DE011A960E944C0651
:10080400E9E7F2E0FA93EA93DE011A96A9DE9F0182
:10081400AE81BF81E0E0EC93F9010E94A5062A961F
:10082400FF900895FF92F82E26971A930A93DE01FB
:1008340014960E947A068D01E0E0EC83ED83EE834A
:10084400EF83DE0118960E944C06EFE6F2E0FA937D
:10085400EA93DE01189684DE198108812896FF90B8
:100864000895BA93AA931A93A981BA81E0E0EC930C
:10087400AB81BC81EC911E2FE03019F0E0E0EC93E9
:1008840003C00E94B2001E2FE12F188125960895FF
:10089400FF92BA93AA9324970E949C06E0E0F0E0AA
:1008A400E887F9874E2FE889F9893196E88BF98B27
:1008B4003197E4913E2FE03009F425C10E9455069A
:1008C400C1F0EDB7FEB7FA93EA934F930E945A062C
:1008D4004F913E2FE03019F00E94550609F407C0ED
:1008E4000E9460061CF4EFEFFFEF0FC1EACF432F25
:1008F40009C1353209F0EEC050E0E889F989359133
:10090400E88BF98B303310F03A3308F007C0AAE0D3
:100914005A9F502DE32FE0535E0FEFCF303009F490
:10092400F2C0EDB7FEB7FA93EA934F930E945A06CA
:100934004F912E2FAE2F0E94B205E03039F00E9465
:1009440060061CF4EFEFFFEFE0C0EBCF203009F4BA
:10095400D1C0422F503009F45FEFE32FE33699F40E
:100964000E946506EDB7FEB7FA93EA934F930E948F
:100974005A064F91D801EC930E9460061CF4EFEFE5
:10098400FFEFC3C0A1C0E33741F50E946506E52F20
:100994005150E030F1F0EDB7FEB7FA93EA934F937C
:1009A4000E945A064F913E2FE03019F00E945506DE
:1009B40039F00E9460061CF4EFEFFFEFA6C009C0F7
:1009C4001F930F930F5F1F4FE32FAF91BF91EC93D2
:1009D400DECFD801E0E0EC9377C06894F1F8E894B6
:1009E400F2F8E32FE43611F0E93619F4E894F1F85B
:1009F40002C0E53711F42AE008C0E83711F420E119
:100A040004C0E53209F466C07EC0E0E0EE83EF8303
:100A14006894F0F8E52F5150E03009F446C0EDB782
:100A2400FEB7FA93EA934F930E945A064F913E2FD2
:100A3400E13238F40E9460061CF4EFEFFFEF65C06A
:100A440017C0F1FC08C06894F1F83D3211F4F2F8D3
:100A5400E1CF3B32F9F2203131F4A32F0E94BD05DE
:100A6400E03031F009C0A32F0E94A905E03021F441
:100A7400F0FC49C0432F19C0313610F0375505C07A
:100A8400313410F0375301C03053E22FAE81BF81AF
:100A9400F0E00E948706DF01E32FF0E0EA0FFB1F7E
:100AA400EE83FF83E894F0F8B5CF0E946506F2FE6A
:100AB40006C0EE81FF810E947E06EE83FF83EE81F5
:100AC400FF81D801ED93FC93E885F9853196E88799
:100AD400F98718C0EDB7FEB7FA93EA934F930E94D3
:100AE4005A064F91E31771F00E9460061CF4EFEF71
:100AF400FFEF0BC0E885F985309719F4EFEFFFEFAE
:100B040004C001C0D0CEE885F9850E94A306629690
:100B1400FF900895FF92F82E23971A930A93DE010B
:100B240011960E947A068D01E0E0EB83EC83DE01EE
:100B340015960E944C06E3E3F4E0FA93EA93DE018F
:100B44001896A6DE198108812596FF900895AA9328
:100B5400E1E0F991F03310F0FA3308F0EE2708954C
:100B6400AA93E1E0F991F03229F0F93010F0FE3067
:100B740008F0EE270895AA93E1E0F991F05340F0CC
:100B8400FA3038F0FF75F750FA3010F0F03108F011
:100B9400EE270895BA93AA93A991B991EE27FF2756
:100BA4006D91662311F03196FBCF0895BA93AA9301
:100BB400AA27BB27E991F9910590002011F011961D
:100BC400FBCFFD010895E2E7F0E0FA93EA9308957C
:100BD4000E94970684E00E948C0526960895E0E61C
:100BE400F2E0FA93EA9308950E9482060E9497061F
:100BF40084E00895A0E6B2E00C942A020E948206E2
:100C04000E949706089588E00E94E6032C960E94AD
:100C1400FC01F0CF0E94DF01A3E0B0E00C94700669
:100C2400A0E30E94CA0188EC90E00197F1F70895CF
:100C3400ED91FD913196FE93EE9308952A93AD853F
:100C4400BE85EF85F88909950895E889F98934976F
:100C5400E88BF98B0895AD85BE85EF85F8890995F4
:100C64000895A889B98914960E948F06EE83FF839C
:100C7400AE81BF810895A889B98914960E948F0610
:100C8400EA87FB870895DE011C960E947A060E947B
:100C94008F0608950E947A060E948F06FA93EA93BB
:100CA4001A930A930895A32F0E94B205E030089581
:100CB400AC85BD85EE85FF8509950895AA85BB851C
:100CC400AC91A0300895EE85FF853497EE87FF87B9
:100CD400AE85BF8514960D911C910895109639F038
:100CE40080ED97E00197F1F7A8951197C9F708955A
:100CF4000024AF0DB01D0895F195E195F0400895DD
:100D04006F2F660F660B762F0895FA9FF02DEB9FD9
:100D1400F00DEA9FE02DF10D0895ED91FC911197EE
:100D240008950590F491E02D08957A936A93FA93C7
:100D3400EA9308955A934A933A932A931A930A93F7
:100D440008955D814C813B812A8119810881089530
:00000001FF
