:0A0000000C9442000C946F000C9465
:10000A0000000C9400000C9400000C9400000C9466
:10001A0000000C9400000C9400000C9400000C9456
:10002A0000000C9400000C9400000C9400000C9446
:10003A0000000C9400000C9400000C9400000C9436
:10004A0000000C9400000C9400001027E8036400E0
:10005A000A00010000100001100001000000000069
:10006A00000025640A002564000080C00600040020
:10007A0066000200600274000000F894EE27ECBBF0
:10008A00F1E0FBBFEBBFE5BF8DE0A2E0BB27ED933C
:10009A008A95E9F780E098E0A0E6ED930197E9F701
:1000AA00E6E7F0E085919591009761F0A591B59109
:1000BA0005901590BF01F00105900D920197E1F7A7
:1000CA00FB01F0CFEFE5EDBFE8E0EEBFC0E6D2E01E
:1000DA000C948500EA93FA93E1E0F0E02F01F9919C
:1000EA00E9911895AA93E881E7B98BE18A95F1F726
:1000FA00369A349BFECF349AE4B1F5B10C94AF0131
:10010A002A974BD0042C052809F445C0A0E0EADF61
:10011A00662777270E94FA05DF01CB01ECEBF4E7AB
:10012A0063E070E40E9428060E94C3054F01ECE6D2
:10013A00F0E0FA93EA93F4010E947D060E94920687
:10014A0084E00E9456032696E0E7F0E0FA93EA93E9
:10015A00E6E0F0E060E070E00E94920684E00E942F
:10016A00CD0426966CBEFE01FA93EA93E0E7F0E02E
:10017A00FA93EA93F3010E947D060E94920684E0B4
:10018A000E9428032896E0E0EA93A0E06BD0DE0103
:10019A0099D044245524B6CFFFCFE0E0EABBEBBBAD
:1001AA00E8E0E7BBE0E0E8BBEFEFE4BBE0E0E5BB9B
:1001BA00E1BBE2BBEAE6E3BFE0E0E2BFE0E8ECBFB6
:1001CA00E0E0EFBDEEBDEDBDECBDE7BDE6BDEBBDCC
:1001DA00EABDE9BDE8BDE2BDE5BDE4BDE3BDE9BFF9
:1001EA00EBB7E064EBBFE0E0E5BFE4BFE0E4EABF01
:1001FA00E0E0EBB9E8E1EAB9E6E8E0BDE0E0E0BD5D
:10020A00E3E3E9B9E0E8E8B9E0E0E7B9E3E8E6B949
:10021A00E0E0E0BFEDB9E6BFA8E065D078940895C4
:10022A00AA93E5B3EF70AE2FE881E07FEA2BE5BB36
:10023A008DE08A95F1F7AA9A8DE08A95F1F7AA9846
:10024A008DE08A95F1F70C94AF01AA93A881E8DFB3
:10025A00E881E295E883A881E3DF85E88A95F1F7EA
:10026A000C94AF01AA93E881F0E0E05AFD4FE081D7
:10027A00A981AE0FEADFB980A88022960895A2E08C
:10028A000E942605ACE0E1DFA1E00E942605E0E03D
:10029A00AE2EBE2E0895AA93A881AA3011F0BD14DD
:1002AA0050F0E0E0EA93A394AA2DDCDFA881AA30FB
:1002BA0011F40C94AF01B394A89AA881C6DFA89848
:1002CA000C94AF01BA93AA931A93A981BA81ED91BA
:1002DA00A983BA831E2FE03019F0A12FDCDFF5CFF6
:1002EA0018810C94B901AA93E4B3E06FE4BBA29A13
:1002FA00A09AA19AAA98A898A998D880E881E058C3
:10030A00E0936202E881E054E0936302A4E1B0E082
:10031A000E948A050E942C050E942C050E942C0529
:10032A00A0E27EDF88EC90E00197F1F7A8E28DDF8A
:10033A00A4E08BDFA5E889DFA6E087DFA0DF0C94C5
:10034A00AF015F9BFECFECB10895AA935D9BFECFF0
:10035A00E881ECB921960895BA93AA93AA81F5DFA8
:10036A00A881B9810E94340523960895BA93AA9365
:10037A001A930A93AA81BB8112960E948A06309721
:10038A0029F1AA81BB8114960E948A068F013097AF
:10039A0061F00230E0E01E0780F0F80131978F012A
:1003AA00AA81BB811496ED93FC93AA81BB81129614
:1003BA000E9434053197AC81A083AA81BB810E9437
:1003CA008A06FF2312F00E94340506C0AA81BB8167
:1003DA00EFEFFFEFED93FC931981088195C1BA9372
:1003EA00AA9326970E94970610E0AC85BD85E0E0A7
:1003FA00F0E0ED93FC93EA89FB893196EA8BFB8B5B
:10040A003197E4912E2FE03009F415C1E12FE03045
:10041A0039F4253211F411E002C00E943A050AC1EA
:10042A00E130A9F4253219F40E943A0502C112E01A
:10043A0040E000E02D3211F401E0FCC02B3211F44F
:10044A004BE2F8C0203211F440E2F4C002C0E230BC
:10045A0039F450E013E0203311F40068EBC003C014
:10046A00E33009F0E7C0203310F02A3308F007C060
:10047A00AAE05A9F502DE22FE0535E0FDBC0E22F15
:10048A00E33649F40E944105E889F989A481AA93CF
:10049A000E944705CEC0E33741F40E9441050E94FD
:1004AA004D050E940D051E2F0AC0E03761F40E9417
:1004BA0041050E944D050E9419051E2F0860026021
:1004CA000F7730E034C0E43611F0E93611F40460F5
:1004DA0002C0E53731F4E4E5F0E0EE83FF8315E08E
:1004EA000CC0E83511F4086003C0E83709F0A1C070
:1004FA00EEE5F0E0EE83FF8314E002FF14C00E94F1
:10050A0041050E945705AB85AA233AF4EA85FB8583
:10051A000E947106EA87FB874DE2403011F01F5FA7
:10052A0001C00B7F04C00E9441050E94570500FDCF
:10053A0011C0151778F407FF08C002FF04C00B7F2B
:10054A00242F115001C020E301C020E20E943A0585
:10055A005150EFCF312F01FF17C03030A1F003FF08
:10056A0006C0EE81FF812591EE83FF8305C0AE812F
:10057A00BF812D91AE83BF830E943A05503009F0A6
:10058A0051503150EACF4BC020E3EE81FF810E94E7
:10059A008E06E887F987EE81FF813296EE83FF8324
:1005AA00E885F985AA85BB85AE17BF0750F02F5F8E
:1005BA00A885B985EA85FB85EA1BFB0BEA87FB87D9
:1005CA00EFCF2A3328F003FF02C0295F01C0295D5B
:1005DA0004FD1AC0213320F4A885B985119709F4BE
:1005EA0009C0531710F000FF01C013C020E207FF33
:1005FA000BC020E3006102FF07C00B7F4A930E94F1
:10060A004705503009F051500E943A05503009F020
:10061A0051503150A885B985129708F0B5CF00FF1F
:10062A0008C0503031F05150E0E2EA930E94470589
:10063A00F8CF10E0E0CEAC85BD850E948A060E9404
:10064A009E0664960895FF92F82E26970E949906B0
:10065A000E945F05309719F4EFEFFFEF1DC0DE012E
:10066A0016960E946D068D010E945F05EE83FF8338
:10067A00E0E0E887E987DE011A960E946605EBEB5F
:10068A00F1E0FA93EA93DE011A96A9DE9F01AE81A0
:10069A00BF81E0E0EC93F9010E94A0062A96FF9040
:1006AA000895FF92F82E26971A930A93DE0114965C
:1006BA000E946D068D01E0E0EC83ED83EE83EF830B
:1006CA00DE0118960E946605E1EBF1E0FA93EA93DF
:1006DA00DE01189684DE198108812896FF90089514
:1006EA00BA93AA931A93A981BA81E0E0EC93AB81F9
:1006FA00BC81EC911E2FE03019F0E0E0EC9302C0CF
:10070A0020DE1E2FE12F188125960895FF92BA93B5
:10071A00AA9324970E949706E0E0F0E0E887F98719
:10072A004E2FE889F9893196E88BF98B3197E49154
:10073A003E2FE03009F425C10E946F05C1F0EDB7E4
:10074A00FEB7FA93EA934F930E9474054F913E2F96
:10075A00E03019F00E946F0509F407C00E947A057B
:10076A001CF4EFEFFFEF0FC1EACF432F09C1353277
:10077A0009F0EEC050E0E889F9893591E88BF98BE8
:10078A00303310F03A3308F007C0AAE05A9F502DD0
:10079A00E32FE0535E0FEFCF303009F4F2C0EDB72C
:1007AA00FEB7FA93EA934F930E9474054F912E2F46
:1007BA00AE2F0E94F304E03039F00E947A051CF44F
:1007CA00EFEFFFEFE0C0EBCF203009F4D1C0422FAA
:1007DA00503009F45FEFE32FE33699F40E947F0566
:1007EA00EDB7FEB7FA93EA934F930E9474054F91BF
:1007FA00D801EC930E947A051CF4EFEFFFEFC3C017
:10080A00A1C0E33741F50E947F05E52F5150E03042
:10081A00F1F0EDB7FEB7FA93EA934F930E9474058D
:10082A004F913E2FE03019F00E946F0539F00E9477
:10083A007A051CF4EFEFFFEFA6C009C01F930F93D0
:10084A000F5F1F4FE32FAF91BF91EC93DECFD8011B
:10085A00E0E0EC9377C06894F1F8E894F2F8E32FBB
:10086A00E43611F0E93619F4E894F1F802C0E537F4
:10087A0011F42AE008C0E83711F420E104C0E53297
:10088A0009F466C07EC0E0E0EE83EF836894F0F876
:10089A00E52F5150E03009F446C0EDB7FEB7FA93A0
:1008AA00EA934F930E9474054F913E2FE13238F438
:1008BA000E947A051CF4EFEFFFEF65C017C0F1FC48
:1008CA0008C06894F1F83D3211F4F2F8E1CF3B32F6
:1008DA00F9F2203131F4A32F0E94FE04E03031F006
:1008EA0009C0A32F0E94EA04E03021F4F0FC49C0B9
:1008FA00432F19C0313610F0375505C0313410F086
:10090A00375301C03053E22FAE81BF81F0E00E941D
:10091A008206DF01E32FF0E0EA0FFB1FEE83FF837D
:10092A00E894F0F8B5CF0E947F05F2FE06C0EE818A
:10093A00FF810E947106EE83FF83EE81FF81D80159
:10094A00ED93FC93E885F9853196E887F98718C015
:10095A00EDB7FEB7FA93EA934F930E9474054F914D
:10096A00E31771F00E947A051CF4EFEFFFEF0BC05A
:10097A00E885F985309719F4EFEFFFEF04C001C05D
:10098A00D0CEE885F9850E949E066296FF9008956A
:10099A00FF92F82E23971A930A93DE0111960E946A
:1009AA006D068D01E0E0EB83EC83DE0115960E9473
:1009BA006605E5E7F3E0FA93EA93DE011896A6DE08
:1009CA00198108812596FF900895AA93E1E0F9918B
:1009DA00F03310F0FA3308F0EE270895AA93E1E015
:1009EA00F991F03229F0F93010F0FE3008F0EE27D4
:1009FA000895AA93E1E0F991F05340F0FA3038F003
:100A0A00FF75F750FA3010F0F03108F0EE2708952C
:100A1A00BA93AA93A991B991EE27FF276D916623FC
:100A2A0011F03196FBCF0895BA93AA93AA27BB2750
:100A3A00E991F9910590002011F01196FBCFFD0183
:100A4A0008950E942A01A3E0B0E00C948A05A0E36D
:100A5A000E94150188EC90E00197F1F70895ED9155
:100A6A00FD913196FE93EE9308952A93AD85BE8546
:100A7A00EF85F88909950895E889F9893497E88B0B
:100A8A00F98B0895AD85BE85EF85F8890995089596
:100A9A00A889B98914960E948A06EE83FF83AE81DB
:100AAA00BF810895A889B98914960E948A06EA879F
:100ABA00FB870895DE011C960E946D060E948A0635
:100ACA0008950E946D060E948A06FA93EA931A9381
:100ADA000A930895A32F0E94F304E0300895AC8589
:100AEA00BD85EE85FF8509950895AA85BB85AC91DC
:100AFA00A0300895EE85FF853497EE87FF87AE858F
:100B0A00BF8514960D911C910895109639F080EDC9
:100B1A0097E00197F1F7A8951197C9F7089555231A
:100B2A0042F4503811F4E0FF04C03196691F791F6E
:100B3A006BF050E8572711F45F9373C05F3F31F0B1
:100B4A00660F000C57956795752F08955F930020DF
:100B5A000AF073C06CC050E8192E1522880F991F2D
:100B6A009527550F879550E8072E0522660F771FA0
:100B7A007527550F67950895689401C0E8945F93A7
:100B8A00F2DF703818F07F3F08F44BC056E1571B6C
:100B9A00AAF4519558300EF4593030F0EFEFFFEFC8
:100BAA006FEF7FE777F91AC077275523B9F0EE0F71
:100BBA00FF1F661F771F5A95D1F710C07727583045
:100BCA0028F0EF2FF62F672F5850F9CF552331F021
:100BDA0076956795F795E7955A95D1F700200AF427
:100BEA007FD05F910895689401C0E894309760407F
:100BFA007040B1F0002426F0772312F4009470D0EC
:100C0A00172E7EE1112032F07A95EE0FFF1F661F34
:100C1A00111CF9CFEF2FF62F612D5F938ADF5F91B9
:100C2A000895EE27FF27662777275F910895EFEF4C
:100C3A00FFEF6FE77FEF5F910895EFEFFFEF6FE749
:100C4A007FE75F9108955F9386DF703821F4112062
:100C5A000AF4EDCFF2CF903809F4E3CF01240894D7
:100C6A00970B1BF4D4F30020F3CF792F1F932F9304
:100C7A003F934F93112411272227332744275527BF
:100C8A0090E2AE17BF078607410730F0AE1BBF0BD5
:100C9A00860B410B089401C08894551F221F331FED
:100CAA00111CAA1FBB1F881F441F9A9551F7F901EF
:100CBA00612D4F913F912F911F91662332F0550F6D
:100CCA00EE1FFF1F661F7A9543F229DF5F91089591
:100CDA000024AF0DB01D0895F195E195F0400895F7
:100CEA00F09560957095E195FF4F6F4F7F4F08958E
:100CFA006F2F660F660B762F0895FA9FF02DEB9FE4
:100D0A00F00DEA9FE02DF10D0895ED91FC911197F8
:100D1A0008950590F491E02D08957A936A93FA93D1
:100D2A00EA9308955A934A933A932A931A930A9301
:100D3A0008955D814C813B812A811981088108953A
:00000001FF
