:080000000C9442000C946F0007
:100008000C9400000C9400000C9400000C94000068
:100018000C9400000C9400000C9400000C94000058
:100028000C9400000C9400000C9400000C94000048
:100038000C9400000C9400000C9400000C94000038
:100048000C9477000C9400000C9400001027E8032F
:1000580064000A0001000010000110000100000007
:100068000000000025640A002564000080C0060026
:100078000400660002006A0274000000F894EE278B
:10008800ECBBF1E0FBBFEBBFE5BF8DE0A2E0BB2717
:10009800ED938A95E9F780E098E0A0E6ED93019763
:1000A800E9F7E6E7F0E085919591009761F0A59171
:1000B800B59105901590BF01F00105900D9201973B
:1000C800E1F7FB01F0CFEFE5EDBFE8E0EEBFC0E6FA
:1000D800D2E00C948300EA93FA93E1E0F0E04F0158
:1000E800F991E9911895EA93EFB7EA93E0E0459919
:1000F800E1E04E2E5524E991EFBFE99118953BD0E8
:10010800082C0928B1F1ECE6F0E0FA93EA93F20141
:100118000E9484050E94990584E00E943E03269669
:10012800E0E7F0E0FA93EA93E6E0F0E060E070E000
:100138000E94990584E00E94B504269663BCE0E01D
:10014800EA93A0E078D0E0E6F2E0FA93EA93E0E7F9
:10015800F0E0FA93EA93F3010E9484050E9499055E
:1001680084E00E9410032896A0E6B2E094D0882488
:100178009924C6CFFFCFE0E0EABBEBBBE7BBE8BB07
:10018800E4BBE5BBE0E8E1BBE0E0E2BBE3BFE2BF24
:10019800ECBFEFBDEEBDEDBDECBDE7BDE6BDEBBD13
:1001A800EABDE9BDE8BDE2BDEBE6E5BDE0E0E4BDE2
:1001B800E3BDE9BFEBB7E064EBBFE0E0E5BFE4BF58
:1001C800E0E4EABFE0E0EBB9E8E1EAB9E6E8E0BD7F
:1001D800E0E0E0BDE3E3E9B9E8E0E8B9E0E0E0BF8A
:1001E800E6B9EDB9E6BFA8E067D07894EFEFE4BBD5
:1001F8000895AA93E5B3EF70AE2FE881E07FEA2B6C
:10020800E5BB8DE08A95F1F7AA9A8DE08A95F1F71A
:10021800AA988DE08A95F1F70C949701AA93A88182
:10022800E8DFE881E295E883A881E3DF85E88A953D
:10023800F1F70C949701AA93E881F0E0E659FD4F95
:10024800E081A981AE0FEADFB980A88022960895DF
:10025800A2E00E940E05ACE0E1DFA1E00E940E05DD
:10026800E0E0AE2EBE2E0895AA93A881AA3011F020
:10027800BD1450F0E0E0EA93A394AA2DDCDFA88136
:10028800AA3011F40C949701B394A89AA881C6DFF8
:10029800A8980C949701BA93AA931A93A981BA8142
:1002A800ED91A983BA831E2FE03019F0A12FDCDF6E
:1002B800F5CF18810C94A101AA93E4B3E06FE4BBD5
:1002C800A29AA09AA19AAA98A898A998D880E881F1
:1002D800E058E0936C02E881E054E0936D02A4E1F9
:1002E800B0E00E9472050E9414050E9414050E9445
:1002F8001405A0E27EDF88EC90E00197F1F7A8E210
:100308008DDFA4E08BDFA5E889DFA6E087DFA0DF2B
:100318000C9497015F9BFECFECB10895AA935D9B67
:10032800FECFE881ECB921960895BA93AA93AA81E1
:10033800F5DFA881B9810E941C0523960895BA9318
:10034800AA931A930A93AA81BB8112960E949105D7
:10035800309729F1AA81BB8114960E9491058F01DB
:10036800309761F00230E0E01E0780F0F801319725
:100378008F01AA81BB811496ED93FC93AA81BB815E
:1003880012960E941C053197AC81A083AA81BB817B
:100398000E949105FF2312F00E941C0506C0AA8145
:1003A800BB81EFEFFFEFED93FC931981088195C1B5
:1003B800BA93AA9326970E949E0510E0AC85BD8546
:1003C800E0E0F0E0ED93FC93EA89FB893196EA8B53
:1003D800FB8B3197E4912E2FE03009F415C1E12F02
:1003E800E03039F4253211F411E002C00E942205F0
:1003F8000AC1E130A9F4253219F40E94220502C18C
:1004080012E040E000E02D3211F401E0FCC02B3294
:1004180011F44BE2F8C0203211F440E2F4C002C0FB
:10042800E23039F450E013E0203311F40068EBC0F7
:1004380003C0E33009F0E7C0203310F02A3308F096
:1004480007C0AAE05A9F502DE22FE0535E0FDBC091
:10045800E22FE33649F40E942905E889F989A48145
:10046800AA930E942F05CEC0E33741F40E942905C4
:100478000E9435050E94F5041E2F0AC0E03761F47A
:100488000E9429050E9435050E9401051E2F08605B
:1004980002600F7730E034C0E43611F0E93611F429
:1004A800046002C0E53731F4E4E5F0E0EE83FF8351
:1004B80015E00CC0E83511F4086003C0E83709F00E
:1004C800A1C0EEE5F0E0EE83FF8314E002FF14C064
:1004D8000E9429050E943F05AB85AA233AF4EA85C4
:1004E800FB850E948005EA87FB874DE2403011F0CA
:1004F8001F5F01C00B7F04C00E9429050E943F05B1
:1005080000FD11C0151778F407FF08C002FF04C0EA
:100518000B7F242F115001C020E301C020E20E946C
:1005280022055150EFCF312F01FF17C03030A1F015
:1005380003FF06C0EE81FF812591EE83FF8305C08E
:10054800AE81BF812D91AE83BF830E9422055030BA
:1005580009F051503150EACF4BC020E3EE81FF81C2
:100568000E949505E887F987EE81FF813296EE8330
:10057800FF83E885F985AA85BB85AE17BF0750F0CC
:100588002F5FA885B985EA85FB85EA1BFB0BEA87FF
:10059800FB87EFCF2A3328F003FF02C0295F01C091
:1005A800295D04FD1AC0213320F4A885B985119767
:1005B80009F409C0531710F000FF01C013C020E26E
:1005C80007FF0BC020E3006102FF07C00B7F4A93BF
:1005D8000E942F05503009F051500E9422055030DA
:1005E80009F051503150A885B985129708F0B5CF58
:1005F80000FF08C0503031F05150E0E2EA930E9409
:100608002F05F8CF10E0E0CEAC85BD850E9491059E
:100618000E94A50564960895FF92F82E26970E94D9
:10062800A0050E944705309719F4EFEFFFEF1DC0B2
:10063800DE0116960E947C058D010E944705EE8317
:10064800FF83E0E0E887E987DE011A960E944E05FD
:10065800E3EAF1E0FA93EA93DE011A96A9DE9F0134
:10066800AE81BF81E0E0EC93F9010E94A7052A96CC
:10067800FF900895FF92F82E26971A930A93DE01A9
:1006880014960E947C058D01E0E0EC83ED83EE83F7
:10069800EF83DE0118960E944E05E9E9F1E0FA932E
:1006A800EA93DE01189684DE198108812896FF9066
:1006B8000895BA93AA931A93A981BA81E0E0EC93BA
:1006C800AB81BC81EC911E2FE03019F0E0E0EC9397
:1006D80002C020DE1E2FE12F188125960895FF9273
:1006E800BA93AA9324970E949E05E0E0F0E0E88779
:1006F800F9874E2FE889F9893196E88BF98B31977C
:10070800E4913E2FE03009F425C10E945705C1F05D
:10071800EDB7FEB7FA93EA934F930E945C054F91A9
:100728003E2FE03019F00E94570509F407C00E94D7
:1007380062051CF4EFEFFFEF0FC1EACF432F09C1A9
:10074800353209F0EEC050E0E889F9893591E88B37
:10075800F98B303310F03A3308F007C0AAE05A9FFB
:10076800502DE32FE0535E0FEFCF303009F4F2C085
:10077800EDB7FEB7FA93EA934F930E945C054F9149
:100788002E2FAE2F0E94DB04E03039F00E94620564
:100798001CF4EFEFFFEFE0C0EBCF203009F4D1C03D
:1007A800422F503009F45FEFE32FE33699F40E94AB
:1007B8006705EDB7FEB7FA93EA934F930E945C057D
:1007C8004F91D801EC930E9462051CF4EFEFFFEF04
:1007D800C3C0A1C0E33741F50E946705E52F51501A
:1007E800E030F1F0EDB7FEB7FA93EA934F930E9429
:1007F8005C054F913E2FE03019F00E94570539F003
:100808000E9462051CF4EFEFFFEFA6C009C01F931A
:100818000F930F5F1F4FE32FAF91BF91EC93DECF84
:10082800D801E0E0EC9377C06894F1F8E894F2F826
:10083800E32FE43611F0E93619F4E894F1F802C030
:10084800E53711F42AE008C0E83711F420E104C0C4
:10085800E53209F466C07EC0E0E0EE83EF83689479
:10086800F0F8E52F5150E03009F446C0EDB7FEB777
:10087800FA93EA934F930E945C054F913E2FE13221
:1008880038F40E9462051CF4EFEFFFEF65C017C053
:10089800F1FC08C06894F1F83D3211F4F2F8E1CFA8
:1008A8003B32F9F2203131F4A32F0E94E604E03004
:1008B80031F009C0A32F0E94D204E03021F4F0FCEB
:1008C80049C0432F19C0313610F0375505C03134AF
:1008D80010F0375301C03053E22FAE81BF81F0E0F2
:1008E8000E948905DF01E32FF0E0EA0FFB1FEE838A
:1008F800FF83E894F0F8B5CF0E946705F2FE06C0C2
:10090800EE81FF810E948005EE83FF83EE81FF81E7
:10091800D801ED93FC93E885F9853196E887F98746
:1009280018C0EDB7FEB7FA93EA934F930E945C059F
:100938004F91E31771F00E9462051CF4EFEFFFEF8F
:100948000BC0E885F985309719F4EFEFFFEF04C085
:1009580001C0D0CEE885F9850E94A5056296FF9072
:100968000895FF92F82E23971A930A93DE011196A1
:100978000E947C058D01E0E0EB83EC83DE01159697
:100988000E944E05EDE5F3E0FA93EA93DE0118962E
:10099800A6DE198108812596FF900895AA93E1E0C3
:1009A800F991F03310F0FA3308F0EE270895AA937E
:1009B800E1E0F991F03229F0F93010F0FE3008F05A
:1009C800EE270895AA93E1E0F991F05340F0FA3048
:1009D80038F0FF75F750FA3010F0F03108F0EE27D4
:1009E8000895BA93AA93A991B991EE27FF276D911B
:1009F800662311F03196FBCF0895BA93AA93AA27DC
:100A0800BB27E991F9910590002011F01196FBCFD1
:100A1800FD0108950E941201A3E0B0E00C94720554
:100A2800A0E30E94FD0088EC90E00197F1F708959B
:100A3800ED91FD913196FE93EE9308952A93AD853D
:100A4800BE85EF85F88909950895E889F98934976D
:100A5800E88BF98B0895AD85BE85EF85F8890995F2
:100A68000895A889B98914960E949105EE83FF8399
:100A7800AE81BF810895A889B98914960E9491050D
:100A8800EA87FB870895DE011C960E947C050E9478
:100A9800910508950E947C050E949105FA93EA93B6
:100AA8001A930A930895A32F0E94DB04E030089557
:100AB800AC85BD85EE85FF8509950895AA85BB851A
:100AC800AC91A0300895EE85FF853497EE87FF87B7
:100AD800AE85BF8514960D911C910895109639F036
:100AE80080ED97E00197F1F7A8951197C9F7089558
:100AF8000024AF0DB01D0895F195E195F0400895DB
:100B08006F2F660F660B762F0895FA9FF02DEB9FD7
:100B1800F00DEA9FE02DF10D0895ED91FC911197EC
:100B280008950590F491E02D08957A936A93FA93C5
:100B3800EA9308955A934A933A932A931A930A93F5
:100B480008955D814C813B812A811981088108952E
:00000001FF
