:040000000C9441001B
:100004000C946E000C9400000C9400000C940000FE
:100014000C9400000C9400000C9400000C9400005C
:100024000C9400000C9400000C9476000C940000D6
:100034000C9400000C9400000C9400000C9400003C
:100044000C9400000C9400000C9400000C9400002C
:100054001027E80364000A000100001000011000EA
:1000640001000000000025640A002564000080C02F
:100074000400040066000200650272000000F894A7
:10008400EE27ECBBF1E0FBBFEBBFE5BF8DE0A2E0E8
:10009400BB27ED938A95E9F780E098E0A0E6ED931D
:1000A4000197E9F7E4E7F0E085919591009761F015
:1000B400A591B59105901590BF01F00105900D92A1
:1000C4000197E1F7FB01F0CFEFE5EDBFE8E0EEBF0C
:1000D400C0E6D2E00C94B000EA93FA93E1E0F0E0D9
:1000E4003F01F991E99118950A921A92FA926A934A
:1000F4007A938A939A93AA93BA93EA93FA93EFB76B
:10010400EA93A0E01ED02F010E94CA040E94470473
:10011400DF01CB01ECEBF4E763E070E40E947504CB
:100124000E9410042F01E991EFBFF991E991B9916F
:10013400A9919991899179916991F990199009906E
:100144001895AA93E881E7B98BE18A95F1F7349B76
:10015400FECF349AE4B1F5B10C94A50124D0062C59
:100164000728F9F0A8ECB0E00E94D703EAE6F0E033
:100174000E9485030E944D032696E0E6F2E0FA937E
:10018400EA93EEE6F0E00E9485030E941F0328969E
:10019400E0E0EA93A0E067D0A0E6B2E092D0662463
:1001A4007724DDCFFFCFE0E0EABBEBBBE7BBE8BBE6
:1001B400E4BBE5BBE1BBE2BBE6E0E3BFE0E0E2BFFA
:1001C400ECBFEFBDEEBDEDBDECBDE7BDE6BDEBBDE7
:1001D400EABDE9BDE8BDE2BDE5BDE4BDE3BDE1E0E6
:1001E400E9BFEBB7E064EBBFE0E0E5BFE4BFE0E408
:1001F400EABFE0E0EBB9E8E0EAB9E6E8E0BDE0E058
:10020400E0BDE3E3E9B9E0E8E8B9E0E0E7B9E3EA4F
:10021400E6B9E0E8E0BFE0E0EDB9E6BFA8E061D010
:1002240078940895AA93E5B3EF70AE2FE881E07F48
:10023400EA2BE5BB8DE08A95F1F7AA9A8DE08A95C1
:10024400F1F7AA988DE08A95F1F70C94A501AA9389
:10025400A881E8DFE881E295E883A881E3DF85E807
:100264008A95F1F770C0AA93E881F0E0EB59FD4F4D
:10027400E081A981AE0FEBDF9980888022960895F2
:10028400A2E00E948E03ACE0E2DFA1E00E948E03B4
:10029400E0E08E2E9E2E0895AA93A881AA3011F034
:1002A4009B1448F0E0E0EA938394A82DDCDFA88156
:1002B400AA3009F448C09394A89AA881C8DFA898E2
:1002C40042C0BA93AA931A93A981BA81ED91A983E2
:1002D400BA831E2FE03019F0A12FDEDFF5CF18818D
:1002E4003CC0AA93E4B3E06FE4BBA29AA09AA19A9B
:1002F400AA98A898A998B880E881E058E093670282
:10030400E881E054E0936802A4E1B0E00E94D703DE
:100314000E9494030E9494030E949403A0E282DF4B
:1003240088EC90E00197F1F7A8E291DFA4E08FDF79
:10033400A5E88DDFA6E08BDFA3DF05C0AA935D9B54
:10034400FECFE881ECB921960895BA93AA93AA81C5
:10035400F5DFA881B9810E949C0323960895BA937E
:10036400AA931A930A93AA81BB8112960E94CF047E
:10037400309729F1AA81BB8114960E94CF048F0182
:10038400309761F00230E0E01E0780F0F801319709
:100394008F01AA81BB811496ED93FC93AA81BB8142
:1003A40012960E949C033197AC81A083AA81BB81E1
:1003B4000E94CF04FF2312F00E949C0306C0AA816E
:1003C400BB81EFEFFFEFED93FC9319810881259634
:1003D4000895BA93AA9326970E94DC0410E0AC8592
:1003E400BD85E0E0F0E0ED93FC93EA89FB8931966A
:1003F400EA8BFB8B3197E4912E2FE03009F415C181
:10040400E12FE03039F4253211F411E002C00E94EA
:10041400A2030AC1E130A9F4253219F40E94A2030F
:1004240002C112E040E000E02D3211F401E0FCC012
:100434002B3211F44BE2F8C0203211F440E2F4C044
:1004440002C0E23039F450E013E0203311F40068C4
:10045400EBC003C0E33009F0E7C0203310F02A33C7
:1004640008F007C0AAE05A9F502DE22FE0535E0F18
:10047400DBC0E22FE33649F40E94A903E889F98935
:10048400A481AA930E94AF03CEC0E33741F40E9433
:10049400A9030E94B5030E946C031E2F0AC0E03713
:1004A40061F40E94A9030E94B5030E9478031E2FE1
:1004B400086002600F7730E034C0E43611F0E936AA
:1004C40011F4046002C0E53731F4E4E5F0E0EE83B2
:1004D400FF8315E00CC0E83511F4086003C0E83769
:1004E40009F0A1C0EEE5F0E0EE83FF8314E002FF23
:1004F40014C00E94A9030E94BF03AB85AA233AF447
:10050400EA85FB850E94BE04EA87FB874DE2403002
:1005140011F01F5F01C00B7F04C00E94A9030E9459
:10052400BF0300FD11C0151778F407FF08C002FFD0
:1005340004C00B7F242F115001C020E301C020E22E
:100544000E94A2035150EFCF312F01FF17C030306A
:10055400A1F003FF06C0EE81FF812591EE83FF83A6
:1005640005C0AE81BF812D91AE83BF830E94A203DB
:10057400503009F051503150EACF4BC020E3EE81A6
:10058400FF810E94D304E887F987EE81FF813296C8
:10059400EE83FF83E885F985AA85BB85AE17BF077F
:1005A40050F02F5FA885B985EA85FB85EA1BFB0B14
:1005B400EA87FB87EFCF2A3328F003FF02C0295FC5
:1005C40001C0295D04FD1AC0213320F4A885B98532
:1005D400119709F409C0531710F000FF01C013C0AC
:1005E40020E207FF0BC020E3006102FF07C00B7F7E
:1005F4004A930E94AF03503009F051500E94A20365
:10060400503009F051503150A885B985129708F03F
:10061400B5CF00FF08C0503031F05150E0E2EA930A
:100624000E94AF03F8CF10E0E0CEAC85BD850E94F8
:10063400CF040E94E30464960895FF92F82E26974F
:100644000E94DE040E94C703309719F4EFEFFFEF16
:100654001DC0DE0116960E94BA048D010E94C703D4
:10066400EE83FF83E0E0E887E987DE011A960E94C3
:10067400CE03E1EBF1E0FA93EA93DE011A96A9DEE8
:100684009F01AE81BF81E0E0EC93F9010E94E50493
:100694002A96FF900895FF92F82E26971A930A93AC
:1006A400DE0114960E94BA048D01E0E0EC83ED8330
:1006B400EE83EF83DE0118960E94CE03E7EAF1E0B1
:1006C400FA93EA93DE01189684DE1981088128964C
:1006D400FF900895BA93AA93A991B991EE27FF27A1
:1006E4006D91662311F03196FBCF0895BA93AA93C6
:1006F400AA27BB27E991F9910590002011F01196E2
:10070400FBCFFD010895FA93EA93F2010E94CA0413
:100714000E94D70484E008950E942901A3E0B0E078
:100724000C94D703A0E30E94140188EC90E0019795
:10073400F1F70895ED91FD913196FE93EE930895AE
:100744002A93AD85BE85EF85F88909950895E889D2
:10075400F9893497E88BF98B0895AD85BE85EF85CB
:10076400F88909950895A889B98914960E94CF0437
:10077400EE83FF83AE81BF810895A889B989149659
:100784000E94CF04EA87FB870895DE011C960E942D
:10079400BA040E94CF0408950E94BA040E94CF04B0
:1007A400FA93EA931A930A930895109639F080ED18
:1007B40097E00197F1F7A8951197C9F70895552384
:1007C40042F4503811F4E0FF04C03196691F791FD8
:1007D4006BF050E8572711F45F9373C05F3F31F01B
:1007E400660F000C57956795752F08955F93002049
:1007F4000AF073C06CC050E8192E1522880F991F97
:100804009527550F879550E8072E0522660F771F09
:100814007527550F67950895689401C0E8945F9310
:10082400F2DF703818F07F3F08F44BC056E1571BD5
:10083400AAF4519558300EF4593030F0EFEFFFEF31
:100844006FEF7FE777F91AC077275523B9F0EE0FDA
:10085400FF1F661F771F5A95D1F710C077275830AE
:1008640028F0EF2FF62F672F5850F9CF552331F08A
:1008740076956795F795E7955A95D1F700200AF490
:100884007FD05F910895689401C0E89430976040E8
:100894007040B1F0002426F0772312F4009470D055
:1008A400172E7EE1112032F07A95EE0FFF1F661F9E
:1008B400111CF9CFEF2FF62F612D5F938ADF5F9123
:1008C4000895EE27FF27662777275F910895EFEFB6
:1008D400FFEF6FE77FEF5F910895EFEFFFEF6FE7B3
:1008E4007FE75F9108955F9386DF703821F41120CC
:1008F4000AF4EDCFF2CF903809F4E3CF0124089441
:10090400970B1BF4D4F30020F3CF792F1F932F936D
:100914003F934F9311241127222733274427552728
:1009240090E2AE17BF078607410730F0AE1BBF0B3E
:10093400860B410B089401C08894551F221F331F56
:10094400111CAA1FBB1F881F441F9A9551F7F90158
:10095400612D4F913F912F911F91662332F0550FD6
:10096400EE1FFF1F661F7A9543F229DF5F910895FA
:100974000024AF0DB01D0895F195E195F040089560
:10098400F09560957095E195FF4F6F4F7F4F0895F7
:100994006F2F660F660B762F0895ED91FC911197DA
:1009A40008950590F491E02D08957A936A93FA934B
:1009B400EA9308955A934A933A932A931A930A937B
:1009C40008955D814C813B812A81198108810895B4
:00000001FF
