:040000000C94450017
:100004000C9472000C9400000C9400000C940000FA
:100014000C9400000C9400000C9400000C9400005C
:100024000C9400000C9400000C9400000C9400004C
:100034000C9400000C9400000C9400000C9400003C
:100044000C9400000C9400000C9400000C9400002C
:100054001027E80364000A000100001000011000EA
:100064000100646563696D616C203A202564007C3D
:1000740062696E6172797C3A2025730080C0020047
:10008400600280000000F894EE27ECBBF1E0FBBFB7
:10009400EBBFE5BF8DE0A2E0BB27ED938A95E9F7BE
:1000A40080E098E0A0E6ED930197E9F7E2E8F0E05C
:1000B40085919591009761F0A591B5910590159062
:1000C400BF01F00105900D920197E1F7FB01F0CF1C
:1000D400EFE5EDBFE8E0EEBFC0E6D2E00C94B5007A
:1000E4000A921A92FA926A937A938A939A93AA93A7
:1000F400BA93EA93FA93EFB7EA93FED02F0108D1AB
:100104003F01C89B04C0F301E40DF51D11C0C99B58
:1001140004C0F201E619F7090BC0B69B04C0F30151
:10012400E421F52105C0B79B10C0F301E429F529AA
:100134004F01D4014DD0A0EDB7E00E942404D401B6
:100144005CD0A0EDB7E00E942404E991EFBFF991DF
:10015400E991B991A9919991899179916991F990CC
:10016400199009901895E0E0EABBEBBBE7BBE8BB4C
:10017400EFEFE4BBE0E0E5BBE1BBE2BBE3BFE2BF22
:10018400ECBFEFBDEEBDEDBDECBDE7BDE6BDEBBD27
:10019400EABDE9BDE8BDE2BDE5BDE4BDE3BDE9BF3F
:1001A400EBB7E064EBBFE3E0E5BFE0E0E4BFE0E42D
:1001B400EABFE0E0EAB9E0E8E8B9E0E0E0BFE6B9C8
:1001C400EDB9E6BFA8E00E949B037894FFCFFFCF70
:1001D400BA93AA932D97FE01FA93EA93E6E6F0E028
:1001E400FA93EA93E989FA890E9436040E94E203A9
:1001F400DE010E948A032F960895BA93AA93A497C6
:100204000E947C0400E010E020E030E02730E0E0D1
:100214003E074CF4DE015796A20FB31FE0E0EC93C7
:100224002F5F3F4FF3CFEAA5FBA5309711F4E0E32E
:10023400EF8B20E030E0ABA5AA2332F4EAA5FBA5BE
:100244000E943204EAA7FBA7AAA5BBA50E947804D2
:10025400E4F4F901DE015E96EE0FFF1FEA0FFB1FC7
:100264000F01EAA5FBA5A1E0B0E00E945304D00170
:10027400ED93FC93AAA5BBA5E2E0F0E00E944E0436
:10028400EAA7FBA72F5F3F4FDFCFF9013197AF01FB
:100294005523E2F0FA01DE015E96EE0FFF1FAE0F6A
:1002A400BF1F0E946B04309731F0DE015796A00FF8
:1002B400B11FE1E305C0DE015796A00FB11FE0E3D3
:1002C400EC930F5F1F4F41505040E2CFFE01369632
:1002D400FA93EA93E3E7F0E0FA93EA93FE017B965C
:1002E400662777270E94E203DE0116960E948A039E
:1002F4000E948304AC9608951A930A93E9B3E87FA5
:100304000E2F1127D801E8E0F0E00E944E0407C048
:100314001A930A93E6B3EF710E2F1127F80109918E
:1003240019910895BA93AA931A930A93AA81BB8147
:1003340012960E946B04309759F1AA81BB811496DE
:100344000E946B048F01309761F00230E0E01E07D9
:1003540098F0F80131978F01AA81BB811496ED932F
:10036400FC93AA81BB811296ED91FD913196FE9387
:10037400EE933197AC81A083AA81BB810E946B0468
:10038400FF232AF0ED91FD913196FE93EE9306C082
:10039400AA81BB81EFEFFFEFED93FC9319810881F4
:1003A40025960895BA93AA9326970E947C0410E098
:1003B400AC85BD85E0E0F0E0ED93FC93EA89FB8930
:1003C4003196EA8BFB8B3197E4912E2FE03009F4C0
:1003D40015C1E12FE03039F4253211F411E002C0E7
:1003E4000E94EA030AC1E130A9F4253219F40E94FB
:1003F400EA0302C112E040E000E02D3211F401E012
:10040400FCC02B3211F44BE2F8C0203211F440E26C
:10041400F4C002C0E23039F450E013E0203311F4A8
:100424000068EBC003C0E33009F0E7C0203310F0EC
:100434002A3308F007C0AAE05A9F502DE22FE05358
:100444005E0FDBC0E22FE33649F40E94F103E88932
:10045400F989A481AA930E94F703CEC0E33741F43B
:100464000E94F1030E94FD030E94C9031E2F0AC0CB
:10047400E03761F40E94F1030E94FD030E94D5035A
:100484001E2F086002600F7730E034C0E43611F0AC
:10049400E93611F4046002C0E53731F4E4E5F0E034
:1004A400EE83FF8315E00CC0E83511F4086003C047
:1004B400E83709F0A1C0EEE5F0E0EE83FF8314E035
:1004C40002FF14C00E94F1030E940704AB85AA2313
:1004D4003AF4EA85FB850E943204EA87FB874DE201
:1004E400403011F01F5F01C00B7F04C00E94F10374
:1004F4000E94070400FD11C0151778F407FF08C017
:1005040002FF04C00B7F242F115001C020E301C05F
:1005140020E20E94EA035150EFCF312F01FF17C0B0
:100524003030A1F003FF06C0EE81FF812591EE83F8
:10053400FF8305C0AE81BF812D91AE83BF830E942E
:10054400EA03503009F051503150EACF4BC020E358
:10055400EE81FF810E946F04E887F987EE81FF81B5
:100564003296EE83FF83E885F985AA85BB85AE17AD
:10057400BF0750F02F5FA885B985EA85FB85EA1B84
:10058400FB0BEA87FB87EFCF2A3328F003FF02C077
:10059400295F01C0295D04FD1AC0213320F4A88518
:1005A400B985119709F409C0531710F000FF01C071
:1005B40013C020E207FF0BC020E3006102FF07C065
:1005C4000B7F4A930E94F703503009F051500E9468
:1005D400EA03503009F051503150A885B98512977B
:1005E40008F0B5CF00FF08C0503031F05150E0E2C0
:1005F400EA930E94F703F8CF10E0E0CEAC85BD8506
:100604000E946B040E94830464960895FF92F82E5E
:1006140026970E947E040E940F04309719F4EFEF8E
:10062400FFEF23C0DE0116960E942E048D010E9466
:100634000F04EE83FF83E0E0E887E987DE011A9682
:100644000E942E040E946B04FA93EA931A930A936D
:10065400E4E9F1E0FA93EA93DE011A96A3DE9F013E
:10066400AE81BF81E0E0EC93F9010E9485042A96F3
:10067400FF900895AA93E5B3EF70AE2FE881E07F71
:10068400EA2BE5BB8DE08A95F1F7AA9A8DE08A956D
:10069400F1F7AA988DE08A95F1F777C0AA93A8811B
:1006A400E9DFE881E295E883A881E4DF85E88A95BB
:1006B400F1F76BC0AA93E881F0E0E05AFD4FE081C6
:1006C400A981AE0FEBDFB980A88022960895A2E03D
:1006D4000E941604ACE0E2DFA1E00E941604E0E010
:1006E400AE2EBE2E0895AA93A881AA3011F0BD148F
:1006F40048F0E0E0EA93A394AA2DDCDFA881AA30B5
:1007040009F443C0B394A89AA881C8DFA8983DC04F
:10071400BA93AA931A93A981BA81ED91A983BA8352
:100724001E2FE03019F0A12FDEDFF5CF18812396BC
:100734000895AA93E4B3E06FE4BBA29AA09AA19AA5
:10074400AA98A898A998D880E881E058E093620212
:10075400E881E054E0936302A4E1B0E00E94240441
:100764000E941C040E941C040E941C04A0E282DF5C
:1007740088EC90E00197F1F7A8E290DFA4E08EDF27
:10078400A5E88CDFA6E08ADFA2DF21960895BA935C
:10079400AA93A991B991EE27FF276D91662311F0D1
:1007A4003196FBCF0895BA93AA93AA27BB27E99160
:1007B400F9910590002011F01196FBCFFD010895E9
:1007C4000E94730484E00E94080328960C94690331
:1007D4002A93AD85BE85EF85F88909950895E88942
:1007E400F9893497E88BF98B0895AD85BE85EF853B
:1007F400F88909950895A889B98914960E946B040B
:10080400EE83FF83AE81BF810895A889B9891496C8
:100814000E946B04EA87FB870895DE011C960E9400
:100824002E040E946B0408950E945003A3E0B0E0DC
:100834000C942404A0E30E943C0388EC90E001970C
:10084400F1F70895109639F080ED97E00197F1F7EC
:10085400A8951197C9F708950024AF0DB01D089508
:10086400F195E195F04008956F2F660F660B762F92
:1008740008950024112490E1AA0FBB1F001C111C31
:100884000E1A1F0A18F40E0E1F1E01C0A1609A95BD
:1008940099F7FD01D00108950ED0EBDF0EF4E0DFEF
:1008A4000895E894F7FF02C0DBDF6894EA23FB2392
:1008B4000EF4D6DF0895E894F7FF02C0D1DF689400
:1008C400B7FF06C0A095B095119600F8039400FAFE
:1008D4000895ED91FC91119708950590F491E02D00
:1008E40008957A936A93FA93EA93089500240A1672
:1008F4000B0608955A934A933A932A931A930A93A8
:1009040008955D814C813B812A8119810881089574
:00000001FF
